{
  "_format": "hh-sol-artifact-1",
  "contractName": "BlacklistRegistry",
  "sourceName": "contracts/BlacklistRegistry.sol",
  "abi": [
    {
      "inputs": [
        {
          "internalType": "address",
          "name": "_proposalVotingContract",
          "type": "address"
        }
      ],
      "stateMutability": "nonpayable",
      "type": "constructor"
    },
    {
      "anonymous": false,
      "inputs": [
        {
          "indexed": true,
          "internalType": "enum BlacklistRegistry.EntryType",
          "name": "_type",
          "type": "uint8"
        },
        {
          "indexed": false,
          "internalType": "string",
          "name": "_value",
          "type": "string"
        },
        {
          "indexed": false,
          "internalType": "address",
          "name": "_address",
          "type": "address"
        },
        {
          "indexed": false,
          "internalType": "uint256",
          "name": "_timestamp",
          "type": "uint256"
        },
        {
          "indexed": false,
          "internalType": "address",
          "name": "_proposer",
          "type": "address"
        }
      ],
      "name": "EntryAdded",
      "type": "event"
    },
    {
      "anonymous": false,
      "inputs": [
        {
          "indexed": true,
          "internalType": "enum BlacklistRegistry.EntryType",
          "name": "_type",
          "type": "uint8"
        },
        {
          "indexed": false,
          "internalType": "string",
          "name": "_value",
          "type": "string"
        },
        {
          "indexed": false,
          "internalType": "address",
          "name": "_address",
          "type": "address"
        },
        {
          "indexed": false,
          "internalType": "uint256",
          "name": "_timestamp",
          "type": "uint256"
        },
        {
          "indexed": false,
          "internalType": "address",
          "name": "_remover",
          "type": "address"
        }
      ],
      "name": "EntryRemoved",
      "type": "event"
    },
    {
      "anonymous": false,
      "inputs": [
        {
          "indexed": true,
          "internalType": "address",
          "name": "_previousOwner",
          "type": "address"
        },
        {
          "indexed": true,
          "internalType": "address",
          "name": "_newOwner",
          "type": "address"
        }
      ],
      "name": "OwnershipTransferred",
      "type": "event"
    },
    {
      "anonymous": false,
      "inputs": [
        {
          "indexed": true,
          "internalType": "address",
          "name": "_oldContract",
          "type": "address"
        },
        {
          "indexed": true,
          "internalType": "address",
          "name": "_newContract",
          "type": "address"
        },
        {
          "indexed": false,
          "internalType": "uint256",
          "name": "_timestamp",
          "type": "uint256"
        }
      ],
      "name": "ProposalVotingContractUpdated",
      "type": "event"
    },
    {
      "inputs": [
        {
          "internalType": "address",
          "name": "_address",
          "type": "address"
        },
        {
          "internalType": "address",
          "name": "_proposer",
          "type": "address"
        }
      ],
      "name": "addAddress",
      "outputs": [],
      "stateMutability": "nonpayable",
      "type": "function"
    },
    {
      "inputs": [
        {
          "internalType": "string",
          "name": "_url",
          "type": "string"
        },
        {
          "internalType": "address",
          "name": "_proposer",
          "type": "address"
        }
      ],
      "name": "addURL",
      "outputs": [],
      "stateMutability": "nonpayable",
      "type": "function"
    },
    {
      "inputs": [
        {
          "internalType": "address[]",
          "name": "_addresses",
          "type": "address[]"
        }
      ],
      "name": "batchCheckAddresses",
      "outputs": [
        {
          "internalType": "bool[]",
          "name": "",
          "type": "bool[]"
        }
      ],
      "stateMutability": "view",
      "type": "function"
    },
    {
      "inputs": [
        {
          "internalType": "string[]",
          "name": "_urls",
          "type": "string[]"
        }
      ],
      "name": "batchCheckURLs",
      "outputs": [
        {
          "internalType": "bool[]",
          "name": "",
          "type": "bool[]"
        }
      ],
      "stateMutability": "view",
      "type": "function"
    },
    {
      "inputs": [
        {
          "internalType": "address",
          "name": "_address",
          "type": "address"
        }
      ],
      "name": "getAddressDetails",
      "outputs": [
        {
          "components": [
            {
              "internalType": "enum BlacklistRegistry.EntryType",
              "name": "entryType",
              "type": "uint8"
            },
            {
              "internalType": "uint256",
              "name": "timestamp",
              "type": "uint256"
            },
            {
              "internalType": "address",
              "name": "proposer",
              "type": "address"
            },
            {
              "internalType": "bool",
              "name": "exists",
              "type": "bool"
            }
          ],
          "internalType": "struct BlacklistRegistry.BlacklistEntry",
          "name": "",
          "type": "tuple"
        }
      ],
      "stateMutability": "view",
      "type": "function"
    },
    {
      "inputs": [
        {
          "internalType": "string",
          "name": "_url",
          "type": "string"
        }
      ],
      "name": "getURLDetails",
      "outputs": [
        {
          "components": [
            {
              "internalType": "enum BlacklistRegistry.EntryType",
              "name": "entryType",
              "type": "uint8"
            },
            {
              "internalType": "uint256",
              "name": "timestamp",
              "type": "uint256"
            },
            {
              "internalType": "address",
              "name": "proposer",
              "type": "address"
            },
            {
              "internalType": "bool",
              "name": "exists",
              "type": "bool"
            }
          ],
          "internalType": "struct BlacklistRegistry.BlacklistEntry",
          "name": "",
          "type": "tuple"
        }
      ],
      "stateMutability": "view",
      "type": "function"
    },
    {
      "inputs": [
        {
          "internalType": "address",
          "name": "_address",
          "type": "address"
        }
      ],
      "name": "isAddressBlacklisted",
      "outputs": [
        {
          "internalType": "bool",
          "name": "",
          "type": "bool"
        }
      ],
      "stateMutability": "view",
      "type": "function"
    },
    {
      "inputs": [
        {
          "internalType": "string",
          "name": "_url",
          "type": "string"
        }
      ],
      "name": "isURLBlacklisted",
      "outputs": [
        {
          "internalType": "bool",
          "name": "",
          "type": "bool"
        }
      ],
      "stateMutability": "view",
      "type": "function"
    },
    {
      "inputs": [],
      "name": "owner",
      "outputs": [
        {
          "internalType": "address",
          "name": "",
          "type": "address"
        }
      ],
      "stateMutability": "view",
      "type": "function"
    },
    {
      "inputs": [],
      "name": "proposalVotingContract",
      "outputs": [
        {
          "internalType": "address",
          "name": "",
          "type": "address"
        }
      ],
      "stateMutability": "view",
      "type": "function"
    },
    {
      "inputs": [
        {
          "internalType": "address",
          "name": "_address",
          "type": "address"
        },
        {
          "internalType": "address",
          "name": "_remover",
          "type": "address"
        }
      ],
      "name": "removeAddress",
      "outputs": [],
      "stateMutability": "nonpayable",
      "type": "function"
    },
    {
      "inputs": [
        {
          "internalType": "string",
          "name": "_url",
          "type": "string"
        },
        {
          "internalType": "address",
          "name": "_remover",
          "type": "address"
        }
      ],
      "name": "removeURL",
      "outputs": [],
      "stateMutability": "nonpayable",
      "type": "function"
    },
    {
      "inputs": [
        {
          "internalType": "address",
          "name": "_newOwner",
          "type": "address"
        }
      ],
      "name": "transferOwnership",
      "outputs": [],
      "stateMutability": "nonpayable",
      "type": "function"
    },
    {
      "inputs": [
        {
          "internalType": "address",
          "name": "_newProposalVotingContract",
          "type": "address"
        }
      ],
      "name": "updateProposalVotingContract",
      "outputs": [],
      "stateMutability": "nonpayable",
      "type": "function"
    }
  ],
  "bytecode": "0x6080346100de57601f6112d238819003918201601f19168301916001600160401b038311848410176100e3578084926020946040528339810103126100de57516001600160a01b038116908190036100de5780156100825760018060a01b031990816002541617600255339060035416176003556040516111d890816100fa8239f35b60405162461bcd60e51b815260206004820152602e60248201527f50726f706f73616c566f74696e6720636f6e747261637420616464726573732060448201526d63616e6e6f74206265207a65726f60901b6064820152608490fd5b600080fd5b634e487b7160e01b600052604160045260246000fdfe6040608081526004908136101561001557600080fd5b600091823560e01c80632f7c3f3014610b5d5780633133e3ab14610abf5780636288f8ae14610a595780636d4517dd146108d1578063713e7b8514610734578381637b203d49146106645750806389da0b8a1461058c5780638da5cb5b1461056357806390683e8c1461051e578063a9effc80146103f4578063b38d785f146102f1578063b6fac15a14610207578063b981ed00146101da5763f2fde38b146100bd57600080fd5b346101d65760203660031901126101d6576100d6610d5f565b6003546001600160a01b038082169391926100f23386146110d5565b16938415610193578385146101395750506001600160a01b03191682176003557f8be0079c531659141344cd1fd0a4f28419497f9722a3daafe3b4186f6b6457e08380a380f35b906020608492519162461bcd60e51b8352820152602e60248201527f4e6577206f776e6572206d75737420626520646966666572656e742066726f6d60448201526d1031bab93932b73a1037bbb732b960911b6064820152fd5b906020606492519162461bcd60e51b8352820152602060248201527f4e6577206f776e657220616464726573732063616e6e6f74206265207a65726f6044820152fd5b8280fd5b50503461020357816003193601126102035760025490516001600160a01b039091168152602090f35b5080fd5b5050346102035780600319360112610203577fc87c73681e8eab6c61f2cfe18c89d5f0b28180276e331a6f020140d60cc56233600191610245610d5f565b6102eb610250610d75565b92858060a01b0361026681600254163314610e21565b61029d81851691610278831515610f8f565b828a528860205261029460ff6002868d20015460a01c16611065565b86161515611019565b875285602052866002828220828155828982015501555192839242908491939290606091608084526000608085015260a084019560018060a01b038093166020860152604085015216910152565b0390a280f35b5082346103f157602090816003193601126103f15782359267ffffffffffffffff84116102035736602385011215610203578301359261033861033385610cb2565b610c8c565b9360248486838152019160051b830101913683116103ed57602401905b8282106103ca57505050610369835161112b565b91815b84518110156103b9576103b4906001600160a01b0361038b8288611178565b511684526001835260ff6002888620015460a01c166103aa8287611178565b9015159052611153565b61036c565b8551806103c68682610d22565b0390f35b81356001600160a01b03811681036103e9578152908401908401610355565b8480fd5b8380fd5b80fd5b50346101d65760203660031901126101d65761040e610d5f565b6003546001600160a01b039391849161042a90831633146110d5565b169283156104c0576002549081169283851461047d57506001600160a01b0319168317600255514281527fad5b5335bc74b43ef4828f42404c3fdd4dbddc460bff0adb3db814bb7f2b5d7490602090a380f35b606490602084519162461bcd60e51b8352820152601d60248201527f4e65772061646472657373206d75737420626520646966666572656e740000006044820152fd5b815162461bcd60e51b8152602081850152603260248201527f4e65772050726f706f73616c566f74696e6720636f6e747261637420616464726044820152716573732063616e6e6f74206265207a65726f60701b6064820152608490fd5b5050346102035760203660031901126102035760209160ff9060029083906001600160a01b0361054c610d5f565b1681526001865220015460a01c1690519015158152f35b50503461020357816003193601126102035760035490516001600160a01b039091168152602090f35b50346101d65760203660031901126101d657803567ffffffffffffffff81116103ed576103c6936105c561061193602093369101610cca565b906105ce6110b1565b5084519161060160ff60028351958781818701986105ed81838c610ecb565b810188815203019020015460a01c16610fd4565b8551948593849251928391610ecb565b8201908152030190209060ff6002610627610c56565b936106358382541686610f3a565b6001810154602086015201546001600160a01b0381168385015260a01c16151560608301525191829182610d8b565b808434610731576102eb7fc87c73681e8eab6c61f2cfe18c89d5f0b28180276e331a6f020140d60cc562339161069936610ddf565b92909185600261071160208661070160018060a01b036106bd818754163314610e21565b6106c983511515610e89565b6106f860ff878a5187818189519901986106e481838c610ecb565b81018d815203019020015460a01c16610fd4565b8a161515611019565b8551809381928a51928391610ecb565b810185815203019020828155826001820155015551928392429084610f46565b50fd5b5091903461020357806003193601126102035761074f610d5f565b610757610d75565b9060018060a01b039261076f84600254163314610e21565b8382169361077e851515610f8f565b8486526001948560205260ff6002848920015460a01c1661088e57818516916107a8831515610eee565b6107b0610c56565b8781526020810142815285820194855260608201938985528a5288602052858a209151600281101561087b57825460ff191660ff919091161782555188820155925160029093018054925160ff60a01b90151560a090811b91909116929094166001600160a81b031990931692909217179055905160808082526000908201526001600160a01b0392831660208201524260408201529290911660608301527f6f735748af40d2fe13105f22c3086186d3ef058f453ae407ac6b55c96f7aea339190819081016102eb565b634e487b7160e01b8b5260218c5260248bfd5b825162461bcd60e51b81526020818a0152601e60248201527f4164647265737320697320616c726561647920626c61636b6c697374656400006044820152606490fd5b50919034610203576108e236610ddf565b9160018060a01b036108f981600254163314610e21565b61090583511515610e89565b815160ff600285519260208181890195610920818389610ecb565b81018b815203019020015460a01c16610a165781851691610942831515610eee565b61094a610c56565b8781526020810142815285820194855261097860206060840195600187528851809381928c51928391610ecb565b81018c81520301902091516002811015610a03579260027f6f735748af40d2fe13105f22c3086186d3ef058f453ae407ac6b55c96f7aea339896936102eb96938c9b999660ff801984541691161782555160018201550192511682549160ff60a01b9051151560a01b16916affffffffffffffffffffff60a81b161717905551928392429084610f46565b634e487b7160e01b8a5260218b5260248afd5b825162461bcd60e51b8152602081890152601a60248201527f55524c20697320616c726561647920626c61636b6c69737465640000000000006044820152606490fd5b50346101d65760203660031901126101d657803567ffffffffffffffff81116103ed57610aa760208095610a9460ff95600295369101610cca565b9082875194838680955193849201610ecb565b820190815203019020015460a01c1690519015158152f35b50503461020357602036600319011261020357908160ff6103c693610ae2610d5f565b93610aeb6110b1565b506001600160a01b03948516808252600160205282822060020154610b149060a01c8516611065565b8152600160205220926002610b27610c56565b94610b358482541687610f3a565b6001810154602087015201549081168385015260a01c16151560608301525191829182610d8b565b5082346103f1576020806003193601126102035782359267ffffffffffffffff908185116103ed57366023860112156103ed57840135610b9f61033382610cb2565b94838683815201916024809160051b83010193368511610c5257818301935b858510610c2857505050505050610bd5835161112b565b91805b84518110156103b9578060ff6002610c0a86610bf7610c23968b611178565b51818c5193828580945193849201610ecb565b810188815203019020015460a01c166103aa8287611178565b610bd8565b8435828111610c4e578791610c438392863691890101610cca565b815201940193610bbe565b8880fd5b8680fd5b604051906080820182811067ffffffffffffffff821117610c7657604052565b634e487b7160e01b600052604160045260246000fd5b6040519190601f01601f1916820167ffffffffffffffff811183821017610c7657604052565b67ffffffffffffffff8111610c765760051b60200190565b81601f82011215610d1d5780359067ffffffffffffffff8211610c7657610cfa601f8301601f1916602001610c8c565b9282845260208383010111610d1d57816000926020809301838601378301015290565b600080fd5b6020908160408183019282815285518094520193019160005b828110610d49575050505090565b8351151585529381019392810192600101610d3b565b600435906001600160a01b0382168203610d1d57565b602435906001600160a01b0382168203610d1d57565b8151608082019392906002811015610dc9578252602080820151908301526040808201516001600160a01b0316908301526060908101511515910152565b634e487b7160e01b600052602160045260246000fd5b6040600319820112610d1d576004359067ffffffffffffffff8211610d1d57610e0a91600401610cca565b906024356001600160a01b0381168103610d1d5790565b15610e2857565b60405162461bcd60e51b815260206004820152603360248201527f4f6e6c792050726f706f73616c566f74696e6720636f6e74726163742063616e6044820152721031b0b636103a3434b990333ab731ba34b7b760691b6064820152608490fd5b15610e9057565b60405162461bcd60e51b815260206004820152601360248201527255524c2063616e6e6f7420626520656d70747960681b6044820152606490fd5b60005b838110610ede5750506000910152565b8181015183820152602001610ece565b15610ef557565b60405162461bcd60e51b815260206004820152601f60248201527f50726f706f73657220616464726573732063616e6e6f74206265207a65726f006044820152606490fd5b6002821015610dc95752565b91939260a060609260808552610f6b8151809281608089015260208589019101610ecb565b601f80199101168401019460006020850152604084015260018060a01b0316910152565b15610f9657565b60405162461bcd60e51b8152602060048201526016602482015275416464726573732063616e6e6f74206265207a65726f60501b6044820152606490fd5b15610fdb57565b60405162461bcd60e51b8152602060048201526016602482015275155493081a5cc81b9bdd08189b1858dadb1a5cdd195960521b6044820152606490fd5b1561102057565b60405162461bcd60e51b815260206004820152601e60248201527f52656d6f76657220616464726573732063616e6e6f74206265207a65726f00006044820152606490fd5b1561106c57565b60405162461bcd60e51b815260206004820152601a60248201527f41646472657373206973206e6f7420626c61636b6c69737465640000000000006044820152606490fd5b6110b9610c56565b9060008252600060208301526000604083015260006060830152565b156110dc57565b60405162461bcd60e51b815260206004820152602160248201527f4f6e6c79206f776e65722063616e2063616c6c20746869732066756e6374696f6044820152603760f91b6064820152608490fd5b9061113861033383610cb2565b8281528092611149601f1991610cb2565b0190602036910137565b60001981146111625760010190565b634e487b7160e01b600052601160045260246000fd5b805182101561118c5760209160051b010190565b634e487b7160e01b600052603260045260246000fdfea2646970667358221220e5ebff1ac25d0cfe8ff17a9cb4fc46766e454d139695dc776bab25af9f8d45ce64736f6c63430008140033",
  "linkReferences": {},
  "deployedLinkReferences": {}
}