{
  "_format": "hh-sol-artifact-1",
  "contractName": "ProposalVoting",
  "sourceName": "contracts/ProposalVoting.sol",
  "abi": [
    {
      "inputs": [
        {
          "internalType": "address",
          "name": "_blacklistRegistryAddress",
          "type": "address"
        },
        {
          "internalType": "address",
          "name": "_governanceTokenAddress",
          "type": "address"
        },
        {
          "internalType": "uint256",
          "name": "_minVotingPeriod",
          "type": "uint256"
        },
        {
          "internalType": "uint256",
          "name": "_minVotesForApproval",
          "type": "uint256"
        },
        {
          "internalType": "uint256",
          "name": "_approvalMajorityPercentage",
          "type": "uint256"
        },
        {
          "internalType": "uint256",
          "name": "_minProposerTokenHoldings",
          "type": "uint256"
        }
      ],
      "stateMutability": "nonpayable",
      "type": "constructor"
    },
    {
      "anonymous": false,
      "inputs": [
        {
          "indexed": true,
          "internalType": "address",
          "name": "_oldAddress",
          "type": "address"
        },
        {
          "indexed": true,
          "internalType": "address",
          "name": "_newAddress",
          "type": "address"
        }
      ],
      "name": "BlacklistRegistryUpdated",
      "type": "event"
    },
    {
      "anonymous": false,
      "inputs": [
        {
          "indexed": false,
          "internalType": "uint256",
          "name": "_oldAmount",
          "type": "uint256"
        },
        {
          "indexed": false,
          "internalType": "uint256",
          "name": "_newAmount",
          "type": "uint256"
        }
      ],
      "name": "MinProposerTokenHoldingsUpdated",
      "type": "event"
    },
    {
      "anonymous": false,
      "inputs": [
        {
          "indexed": true,
          "internalType": "address",
          "name": "_previousOwner",
          "type": "address"
        },
        {
          "indexed": true,
          "internalType": "address",
          "name": "_newOwner",
          "type": "address"
        }
      ],
      "name": "OwnershipTransferred",
      "type": "event"
    },
    {
      "anonymous": false,
      "inputs": [
        {
          "indexed": true,
          "internalType": "uint256",
          "name": "proposalId",
          "type": "uint256"
        },
        {
          "indexed": true,
          "internalType": "enum ProposalVoting.ProposalType",
          "name": "_type",
          "type": "uint8"
        },
        {
          "indexed": false,
          "internalType": "string",
          "name": "_url",
          "type": "string"
        },
        {
          "indexed": false,
          "internalType": "address",
          "name": "_address",
          "type": "address"
        },
        {
          "indexed": false,
          "internalType": "string",
          "name": "_description",
          "type": "string"
        },
        {
          "indexed": true,
          "internalType": "address",
          "name": "_proposer",
          "type": "address"
        },
        {
          "indexed": false,
          "internalType": "uint256",
          "name": "_creationTimestamp",
          "type": "uint256"
        },
        {
          "indexed": false,
          "internalType": "uint256",
          "name": "_votingPeriodEnd",
          "type": "uint256"
        }
      ],
      "name": "ProposalCreated",
      "type": "event"
    },
    {
      "anonymous": false,
      "inputs": [
        {
          "indexed": true,
          "internalType": "uint256",
          "name": "proposalId",
          "type": "uint256"
        },
        {
          "indexed": true,
          "internalType": "enum ProposalVoting.ProposalType",
          "name": "_type",
          "type": "uint8"
        },
        {
          "indexed": false,
          "internalType": "string",
          "name": "_url",
          "type": "string"
        },
        {
          "indexed": false,
          "internalType": "address",
          "name": "_address",
          "type": "address"
        },
        {
          "indexed": true,
          "internalType": "address",
          "name": "executor",
          "type": "address"
        }
      ],
      "name": "ProposalExecuted",
      "type": "event"
    },
    {
      "anonymous": false,
      "inputs": [
        {
          "indexed": true,
          "internalType": "uint256",
          "name": "proposalId",
          "type": "uint256"
        },
        {
          "indexed": false,
          "internalType": "enum ProposalVoting.ProposalStatus",
          "name": "_oldStatus",
          "type": "uint8"
        },
        {
          "indexed": false,
          "internalType": "enum ProposalVoting.ProposalStatus",
          "name": "_newStatus",
          "type": "uint8"
        }
      ],
      "name": "ProposalStatusUpdated",
      "type": "event"
    },
    {
      "anonymous": false,
      "inputs": [
        {
          "indexed": true,
          "internalType": "uint256",
          "name": "proposalId",
          "type": "uint256"
        },
        {
          "indexed": true,
          "internalType": "address",
          "name": "voter",
          "type": "address"
        },
        {
          "indexed": false,
          "internalType": "bool",
          "name": "_support",
          "type": "bool"
        },
        {
          "indexed": false,
          "internalType": "uint256",
          "name": "_yesVotes",
          "type": "uint256"
        },
        {
          "indexed": false,
          "internalType": "uint256",
          "name": "_noVotes",
          "type": "uint256"
        }
      ],
      "name": "VoteCast",
      "type": "event"
    },
    {
      "anonymous": false,
      "inputs": [
        {
          "indexed": false,
          "internalType": "uint256",
          "name": "_minVotingPeriod",
          "type": "uint256"
        },
        {
          "indexed": false,
          "internalType": "uint256",
          "name": "_minVotesForApproval",
          "type": "uint256"
        },
        {
          "indexed": false,
          "internalType": "uint256",
          "name": "_approvalMajorityPercentage",
          "type": "uint256"
        }
      ],
      "name": "VotingParametersUpdated",
      "type": "event"
    },
    {
      "inputs": [],
      "name": "approvalMajorityPercentage",
      "outputs": [
        {
          "internalType": "uint256",
          "name": "",
          "type": "uint256"
        }
      ],
      "stateMutability": "view",
      "type": "function"
    },
    {
      "inputs": [],
      "name": "blacklistRegistry",
      "outputs": [
        {
          "internalType": "contract BlacklistRegistry",
          "name": "",
          "type": "address"
        }
      ],
      "stateMutability": "view",
      "type": "function"
    },
    {
      "inputs": [
        {
          "internalType": "enum ProposalVoting.ProposalType",
          "name": "_type",
          "type": "uint8"
        },
        {
          "internalType": "string",
          "name": "_url",
          "type": "string"
        },
        {
          "internalType": "address",
          "name": "_address",
          "type": "address"
        },
        {
          "internalType": "string",
          "name": "_description",
          "type": "string"
        },
        {
          "internalType": "uint256",
          "name": "_userDefinedVotingDurationInSeconds",
          "type": "uint256"
        }
      ],
      "name": "createProposal",
      "outputs": [
        {
          "internalType": "uint256",
          "name": "",
          "type": "uint256"
        }
      ],
      "stateMutability": "nonpayable",
      "type": "function"
    },
    {
      "inputs": [
        {
          "internalType": "uint256",
          "name": "_proposalId",
          "type": "uint256"
        }
      ],
      "name": "endProposalAndExecute",
      "outputs": [],
      "stateMutability": "nonpayable",
      "type": "function"
    },
    {
      "inputs": [
        {
          "internalType": "uint256",
          "name": "_proposalId",
          "type": "uint256"
        }
      ],
      "name": "executeApprovedProposal",
      "outputs": [],
      "stateMutability": "nonpayable",
      "type": "function"
    },
    {
      "inputs": [],
      "name": "getActiveProposals",
      "outputs": [
        {
          "internalType": "uint256[]",
          "name": "",
          "type": "uint256[]"
        }
      ],
      "stateMutability": "view",
      "type": "function"
    },
    {
      "inputs": [
        {
          "internalType": "uint256",
          "name": "_proposalId",
          "type": "uint256"
        }
      ],
      "name": "getProposal",
      "outputs": [
        {
          "internalType": "uint256",
          "name": "id",
          "type": "uint256"
        },
        {
          "internalType": "enum ProposalVoting.ProposalType",
          "name": "proposalType",
          "type": "uint8"
        },
        {
          "internalType": "string",
          "name": "urlValue",
          "type": "string"
        },
        {
          "internalType": "address",
          "name": "addressValue",
          "type": "address"
        },
        {
          "internalType": "string",
          "name": "description",
          "type": "string"
        },
        {
          "internalType": "uint256",
          "name": "creationTimestamp",
          "type": "uint256"
        },
        {
          "internalType": "uint256",
          "name": "votingPeriodEnd",
          "type": "uint256"
        },
        {
          "internalType": "address",
          "name": "proposer",
          "type": "address"
        },
        {
          "internalType": "uint256",
          "name": "yesVotes",
          "type": "uint256"
        },
        {
          "internalType": "uint256",
          "name": "noVotes",
          "type": "uint256"
        },
        {
          "internalType": "enum ProposalVoting.ProposalStatus",
          "name": "status",
          "type": "uint8"
        },
        {
          "internalType": "uint256",
          "name": "totalVoters",
          "type": "uint256"
        }
      ],
      "stateMutability": "view",
      "type": "function"
    },
    {
      "inputs": [],
      "name": "getProposalsReadyToResolve",
      "outputs": [
        {
          "internalType": "uint256[]",
          "name": "",
          "type": "uint256[]"
        }
      ],
      "stateMutability": "view",
      "type": "function"
    },
    {
      "inputs": [],
      "name": "getTotalProposalCount",
      "outputs": [
        {
          "internalType": "uint256",
          "name": "",
          "type": "uint256"
        }
      ],
      "stateMutability": "view",
      "type": "function"
    },
    {
      "inputs": [
        {
          "internalType": "uint256",
          "name": "_proposalId",
          "type": "uint256"
        }
      ],
      "name": "getVotingResults",
      "outputs": [
        {
          "internalType": "uint256",
          "name": "yesVotes",
          "type": "uint256"
        },
        {
          "internalType": "uint256",
          "name": "noVotes",
          "type": "uint256"
        },
        {
          "internalType": "uint256",
          "name": "totalVoters",
          "type": "uint256"
        },
        {
          "internalType": "uint256",
          "name": "majorityPercentage",
          "type": "uint256"
        }
      ],
      "stateMutability": "view",
      "type": "function"
    },
    {
      "inputs": [],
      "name": "governanceTokenContract",
      "outputs": [
        {
          "internalType": "contract GovernanceToken",
          "name": "",
          "type": "address"
        }
      ],
      "stateMutability": "view",
      "type": "function"
    },
    {
      "inputs": [
        {
          "internalType": "uint256",
          "name": "_proposalId",
          "type": "uint256"
        },
        {
          "internalType": "address",
          "name": "_voter",
          "type": "address"
        }
      ],
      "name": "hasVotedOnProposal",
      "outputs": [
        {
          "internalType": "bool",
          "name": "",
          "type": "bool"
        }
      ],
      "stateMutability": "view",
      "type": "function"
    },
    {
      "inputs": [],
      "name": "minProposerTokenHoldings",
      "outputs": [
        {
          "internalType": "uint256",
          "name": "",
          "type": "uint256"
        }
      ],
      "stateMutability": "view",
      "type": "function"
    },
    {
      "inputs": [],
      "name": "minVotesForApproval",
      "outputs": [
        {
          "internalType": "uint256",
          "name": "",
          "type": "uint256"
        }
      ],
      "stateMutability": "view",
      "type": "function"
    },
    {
      "inputs": [],
      "name": "minVotingPeriod",
      "outputs": [
        {
          "internalType": "uint256",
          "name": "",
          "type": "uint256"
        }
      ],
      "stateMutability": "view",
      "type": "function"
    },
    {
      "inputs": [],
      "name": "nextProposalId",
      "outputs": [
        {
          "internalType": "uint256",
          "name": "",
          "type": "uint256"
        }
      ],
      "stateMutability": "view",
      "type": "function"
    },
    {
      "inputs": [],
      "name": "owner",
      "outputs": [
        {
          "internalType": "address",
          "name": "",
          "type": "address"
        }
      ],
      "stateMutability": "view",
      "type": "function"
    },
    {
      "inputs": [
        {
          "internalType": "uint256",
          "name": "",
          "type": "uint256"
        }
      ],
      "name": "proposals",
      "outputs": [
        {
          "internalType": "uint256",
          "name": "id",
          "type": "uint256"
        },
        {
          "internalType": "enum ProposalVoting.ProposalType",
          "name": "proposalType",
          "type": "uint8"
        },
        {
          "internalType": "string",
          "name": "urlValue",
          "type": "string"
        },
        {
          "internalType": "address",
          "name": "addressValue",
          "type": "address"
        },
        {
          "internalType": "string",
          "name": "description",
          "type": "string"
        },
        {
          "internalType": "uint256",
          "name": "creationTimestamp",
          "type": "uint256"
        },
        {
          "internalType": "uint256",
          "name": "votingPeriodEnd",
          "type": "uint256"
        },
        {
          "internalType": "address",
          "name": "proposer",
          "type": "address"
        },
        {
          "internalType": "uint256",
          "name": "yesVotes",
          "type": "uint256"
        },
        {
          "internalType": "uint256",
          "name": "noVotes",
          "type": "uint256"
        },
        {
          "internalType": "enum ProposalVoting.ProposalStatus",
          "name": "status",
          "type": "uint8"
        },
        {
          "internalType": "uint256",
          "name": "totalVoters",
          "type": "uint256"
        }
      ],
      "stateMutability": "view",
      "type": "function"
    },
    {
      "inputs": [
        {
          "internalType": "address",
          "name": "_newOwner",
          "type": "address"
        }
      ],
      "name": "transferOwnership",
      "outputs": [],
      "stateMutability": "nonpayable",
      "type": "function"
    },
    {
      "inputs": [
        {
          "internalType": "address",
          "name": "_newBlacklistRegistryAddress",
          "type": "address"
        }
      ],
      "name": "updateBlacklistRegistry",
      "outputs": [],
      "stateMutability": "nonpayable",
      "type": "function"
    },
    {
      "inputs": [
        {
          "internalType": "uint256",
          "name": "_newMinProposerTokenHoldings",
          "type": "uint256"
        }
      ],
      "name": "updateMinProposerTokenHoldings",
      "outputs": [],
      "stateMutability": "nonpayable",
      "type": "function"
    },
    {
      "inputs": [
        {
          "internalType": "uint256",
          "name": "_newMinVotingPeriod",
          "type": "uint256"
        },
        {
          "internalType": "uint256",
          "name": "_newMinVotesForApproval",
          "type": "uint256"
        },
        {
          "internalType": "uint256",
          "name": "_newApprovalMajorityPercentage",
          "type": "uint256"
        }
      ],
      "name": "updateVotingParameters",
      "outputs": [],
      "stateMutability": "nonpayable",
      "type": "function"
    },
    {
      "inputs": [
        {
          "internalType": "uint256",
          "name": "_proposalId",
          "type": "uint256"
        },
        {
          "internalType": "bool",
          "name": "_support",
          "type": "bool"
        }
      ],
      "name": "vote",
      "outputs": [],
      "stateMutability": "nonpayable",
      "type": "function"
    },
    {
      "inputs": [
        {
          "internalType": "uint256",
          "name": "_proposalId",
          "type": "uint256"
        }
      ],
      "name": "willProposalPass",
      "outputs": [
        {
          "internalType": "bool",
          "name": "",
          "type": "bool"
        }
      ],
      "stateMutability": "view",
      "type": "function"
    }
  ],
  "bytecode": "0x6080346200026057601f620023ed38819003918201601f191683019291906001600160401b0384118385101762000265578160c09284926040968752833981010312620002605762000051816200027b565b6200005f602083016200027b565b918381015160608201519060a060808401519301519360018060a01b038091169586156200020b57168015620001b857811562000160578315158062000154575b15620000ea5760018060a01b0319958660005416176000558560015416176001556004556005556006556007556001600355339060085416176008555161215c9081620002918239f35b865162461bcd60e51b815260206004820152603660248201527f417070726f76616c206d616a6f726974792070657263656e74616765206d757360448201527f74206265206265747765656e203120616e6420313030000000000000000000006064820152608490fd5b506064841115620000a0565b865162461bcd60e51b815260206004820152602b60248201527f4d696e20766f74696e6720706572696f64206d7573742062652067726561746560448201526a72207468616e207a65726f60a81b6064820152608490fd5b865162461bcd60e51b815260206004820152602660248201527f476f7665726e616e6365546f6b656e20616464726573732063616e6e6f74206260448201526565207a65726f60d01b6064820152608490fd5b875162461bcd60e51b815260206004820152602860248201527f426c61636b6c697374526567697374727920616464726573732063616e6e6f74604482015267206265207a65726f60c01b6064820152608490fd5b600080fd5b634e487b7160e01b600052604160045260246000fd5b51906001600160a01b0382168203620002605756fe6080604052600436101561001257600080fd5b6000803560e01c8063013cf08b14611b0c5780630a385cc2146119ba57806315b66457146117cb5780632ab09d14146117ad57806335a4a6d31461178f5780635584c4f9146116785780635ddd79d11461164c578063600303d8146115dd5780638635447a146115bf5780638da5cb5b146115965780639be7567f146115785780639c30f3f014611551578063af879b9114611432578063c5114d1d14610b9d578063c7f758a814610aec578063c9d27afe146108f4578063cd89b2e314610844578063d384ea2f1461044f578063d4b9879e14610331578063d5b2f15b14610313578063d878fe03146102ea578063e07e38d8146102a4578063f2fde38b1461018a5763fa11e98a1461012557600080fd5b34610187576020366003190112610187577fe0fe60397fea64ea09bf9867a5d75b4a062f8e24ca55369d7e4b20e3ee9b133f604060043561017160018060a01b03600854163314611f13565b600754908060075582519182526020820152a180f35b80fd5b5034610187576020366003190112610187576101a4611ded565b600854906001600160a01b03808316916101bf338414611f13565b1691821561026057818314610204576001600160a01b03191682176008557f8be0079c531659141344cd1fd0a4f28419497f9722a3daafe3b4186f6b6457e08380a380f35b60405162461bcd60e51b815260206004820152602e60248201527f4e6577206f776e6572206d75737420626520646966666572656e742066726f6d60448201526d1031bab93932b73a1037bbb732b960911b6064820152608490fd5b606460405162461bcd60e51b815260206004820152602060248201527f4e6577206f776e657220616464726573732063616e6e6f74206265207a65726f6044820152fd5b50346101875760203660031901126101875760206102d5600435801515806102df575b6102d090611e84565b612014565b6040519015158152f35b5060035481106102c7565b50346101875780600319360112610187576001546040516001600160a01b039091168152602090f35b50346101875780600319360112610187576020600654604051908152f35b50346101875760203660031901126101875761034b611ded565b6008546001600160a01b039182916103669083163314611f13565b169081156103f5578254908116908183146103b0576001600160a01b031916821783557fb1a7db682e03f79f8e723e3d3754aba87ce79b2c57486b2bb103e8ab8b1fe92a8380a380f35b60405162461bcd60e51b815260206004820152601d60248201527f4e65772061646472657373206d75737420626520646966666572656e740000006044820152606490fd5b60405162461bcd60e51b815260206004820152602c60248201527f4e657720426c61636b6c6973745265676973747279206164647265737320636160448201526b6e6e6f74206265207a65726f60a01b6064820152608490fd5b50346101875760203660031901126101875760043560018060a01b0361047a81600854163314611f13565b81151580610839575b61048c90611e84565b818352600260205260408320600a810160ff8154166104aa81611ccc565b600181036107dc578260018794018660ff8254166104c781611ccc565b806105c357505085855416908660078401541691803b156105bf57604051636d4517dd60e01b8152928791849182908490829061050b9060028b0160048401611f69565b03925af19182156105b4578892610593575b509561058d9392916000805160206120e783398151915261057960ff6000805160206121078339815191529a5b895499600383198c1617905554169360038601541661056885611ccc565b604051918291600233980183611f69565b0390a4600360405194859416179083611ef0565b0390a280f35b8691949392506105a290611bda565b6105b057909186903861051d565b8480fd5b6040513d88823e3d90fd5b8680fd5b6105cc81611ccc565b6001810361068557505085855416908660038401541687600785015416833b156106815760405163713e7b8560e01b81526001600160a01b039283166004820152911660248201529186908390818381604481015b03925af19182156105b4578892610664575b509561058d9392916000805160206120e783398151915261057960ff6000805160206121078339815191529a61054a565b86919493925061067390611bda565b6105b0579091869038610633565b8780fd5b61068e81611ccc565b600281036106d557505085855416908660078401541691803b156105bf57604051637b203d4960e01b815292879184918290849082906106219060028b0160048401611f69565b806106e4600392999499611ccc565b1461071a575b9061058d9392916000805160206120e783398151915261057960ff6000805160206121078339815191529a61054a565b508092949591939554168783600386015416918460078701541690803b156107d857604051635b7d60ad60e11b81526001600160a01b039485166004820152919093166024820152918290604490829084905af180156107cd57610785575b509391869391866106ea565b9261058d92876000805160206120e783398151915261057960ff9b6107bc6000805160206121078339815191529b999a979a611bda565b9b5050505092509294939093610779565b6040513d8a823e3d90fd5b8280fd5b60405162461bcd60e51b815260206004820152602f60248201527f50726f706f73616c206973206e6f7420696e20417070726f766564207374617460448201526e32903337b91032bc32b1baba34b7b760891b6064820152608490fd5b506003548210610483565b503461018757602036600319011261018757600435801515806108e9575b61086b90611e84565b815260026020526040812081600c820154806108a7575b6080935060096008840154930154604051938452602084015260408301526060820152f35b90506008820154926064840293808504606414901517156108d557506108cf81608094611ed0565b90610882565b634e487b7160e01b81526011600452602490fd5b506003548110610862565b5034610187576040366003190112610187576004356024359081151591828103610ae85781151580610add575b61092a90611e84565b8184526020906002825260ff600a6040872001541661094881611ccc565b610a9f57828552600282526006604086200154421015610a5a57828552600282526040852090600b820133875280845260ff604088205416610a1557338752835260408620600160ff19825416179055600c82016109a68154611e5f565b905515610a0057600881016109bb8154611e5f565b90555b600960088201549101549160405194855284015260408301527f77a255f45c79d26605c257d8dfc37f9a619f53963ddbed1e95aa0aab1c801cee60603393a380f35b60098101610a0e8154611e5f565b90556109be565b60405162461bcd60e51b815260048101859052601e60248201527f416c726561647920766f746564206f6e20746869732070726f706f73616c00006044820152606490fd5b60405162461bcd60e51b815260048101839052601760248201527f566f74696e6720706572696f642068617320656e6465640000000000000000006044820152606490fd5b60405162461bcd60e51b815260048101839052601660248201527550726f706f73616c206973206e6f742061637469766560501b6044820152606490fd5b506003548210610921565b8380fd5b50346101875760203660031901126101875760409060043580151580610b92575b610b1690611e84565b81526002602052208054610b8e60ff6001840154169260018060a01b0390816003820154169160058201549060068301549060078401541660088401549160098501549360ff600a8701541695600c81015497610b816004610b7a60028501611c26565b9301611c26565b916040519c8d9c8d611d2c565b0390f35b506003548110610b0d565b50346101875760a0366003190112610187576004803510156101875760243567ffffffffffffffff811161142e57610bd9903690600401611e08565b6044356001600160a01b03811681036107d85760643567ffffffffffffffff8111610ae857610c0c903690600401611e08565b918251156113e9576084351561139257610c27600435611ccc565b60043515801592818461137b575b6112a5575b610c45600435611ccc565b6002600435149384801561128e575b611228575b60035494610c6686611e5f565b600355608435936004548060843510611220575b50844201421161120c57610c8f600435611ccc565b916111f9575b50156110b55782511561105b576001600160a01b038116611000575b8386526002602052604086209484865560018601610cd0600435611ccc565b60ff1981541660ff60043516179055835167ffffffffffffffff8111610f3357610cfd6002880154611ba0565b601f8111610fbc575b50806020601f8211600114610f52578991610f47575b508160011b916000199060031b1c19161760028701555b6003860180546001600160a01b0319166001600160a01b038416179055805167ffffffffffffffff8111610f3357610d6e6004880154611ba0565b601f8111610eef575b509660209788601f8211600114610e7e579781600c92610e319798999a8591610e73575b508160011b916000199060031b1c19161760048201555b426005820155864201600682015560078101336bffffffffffffffffffffffff60a01b825416179055826008820155826009820155600a810160ff1981541690550155610e00600435611ccc565b610e156040519560a0875260a0870190611cec565b6001600160a01b03909216858801528482036040860152611cec565b9042606084015242016080830152827fdf5cf7d8d12c9666e69277d5c27be9fd4bc06898204594cc50f6f81af38aa9e0339380600435940390a4604051908152f35b905085015138610d9b565b60048901835289832090835b601f1984168110610ed8575082610e319798999a92600192600c95601f19811610610ebf575b5050811b016004820155610db2565b87015160001960f88460031b161c191690553880610eb0565b90918b600181928589015181550193019101610e8a565b60048801895260208920601f830160051c810160208410610f2c575b601f830160051c82018110610f21575050610d77565b8a8155600101610f0b565b5080610f0b565b634e487b7160e01b88526041600452602488fd5b905085015138610d1c565b91506002880189526020892089925b601f1983168410610fa4576001935082601f19811610610f8b575b5050811b016002870155610d33565b87015160001960f88460031b161c191690553880610f7c565b87810151825560209384019360019092019101610f61565b60028801895260208920601f830160051c810160208410610ff9575b601f830160051c82018110610fee575050610d06565b8a8155600101610fd8565b5080610fd8565b60405162461bcd60e51b815260206004820152602d60248201527f41646472657373206d757374206265207a65726f20666f722055524c2d72656c60448201526c185d1959081c1c9bdc1bdcd85b609a1b6064820152608490fd5b60405162461bcd60e51b815260206004820152602c60248201527f55524c2063616e6e6f7420626520656d70747920666f722055524c2d72656c6160448201526b1d1959081c1c9bdc1bdcd85b60a21b6064820152608490fd5b6110c0600435611ccc565b60016004351480156111e2575b156111a5576001600160a01b0381161561114457825115610cb15760405162461bcd60e51b815260206004820152602e60248201527f55524c206d75737420626520656d70747920666f7220416464726573732d726560448201526d1b185d1959081c1c9bdc1bdcd85b60921b6064820152608490fd5b60405162461bcd60e51b815260206004820152603360248201527f416464726573732063616e6e6f74206265207a65726f20666f722041646472656044820152721cdccb5c995b185d1959081c1c9bdc1bdcd85b606a1b6064820152608490fd5b60405162461bcd60e51b8152602060048201526015602482015274496e76616c69642070726f706f73616c207479706560581b6044820152606490fd5b506111ee600435611ccc565b6003600435146110cd565b9050611206600435611ccc565b38610c95565b634e487b7160e01b89526011600452602489fd5b945038610c7a565b6008546001600160a01b03163314610c595760405162461bcd60e51b815260206004820152602660248201527f4f6e6c79206f776e65722063616e206372656174652052656d6f76652070726f604482015265706f73616c7360d01b6064820152608490fd5b5061129a600435611ccc565b600360043514610c54565b6001546040516370a0823160e01b815233600482015290602090829060249082906001600160a01b03165afa90811561137057879161133f575b506007541115610c3a5760405162461bcd60e51b815260206004820152602860248201527f496e73756666696369656e74204150475420746f2063726561746520416464206044820152671c1c9bdc1bdcd85b60c21b6064820152608490fd5b90506020813d8211611368575b8161135960209383611c04565b810103126105bf5751386112df565b3d915061134c565b6040513d89823e3d90fd5b50611387600435611ccc565b600160043514610c35565b60405162461bcd60e51b815260206004820152602960248201527f566f74696e67206475726174696f6e206d7573742062652067726561746572206044820152687468616e207a65726f60b81b6064820152608490fd5b60405162461bcd60e51b815260206004820152601b60248201527f4465736372697074696f6e2063616e6e6f7420626520656d70747900000000006044820152606490fd5b5080fd5b50346101875780600319360112610187576003548160015b8281106114e9575061145b9061208a565b918060015b8381106114755760405180610b8e8782611db2565b808252600260209080825260ff600a6040862001541661149481611ccc565b1591826114d2575b50506114b1575b6114ac90611e5f565b611460565b916114ca81846114c46114ac94896120bc565b52611e5f565b9290506114a3565b83855252506040822060060154421015388061149c565b808452600260209080825260ff600a6040882001541661150881611ccc565b15918261153a575b5050611525575b61152090611e5f565b61144a565b9061153261152091611e5f565b919050611517565b838752525060408420600601544210153880611510565b5034610187578060031936011261018757546040516001600160a01b039091168152602090f35b50346101875780600319360112610187576020600554604051908152f35b50346101875780600319360112610187576008546040516001600160a01b039091168152602090f35b50346101875780600319360112610187576020600454604051908152f35b5034610187576040366003190112610187576024356001600160a01b03811690600435908290036107d85760209260ff9282604093151580611641575b61162390611e84565b825260028552600b8383200190825284522054166040519015158152f35b50600354811061161a565b50346101875780600319360112610187576003546000198101919082116108d557602082604051908152f35b50346101875780600319360112610187576003548160015b82811061172857506116a19061208a565b918060015b8381106116bb5760405180610b8e8782611db2565b808252600260209080825260ff600a604086200154166116da81611ccc565b159182611712575b50506116f7575b6116f290611e5f565b6116a6565b9161170a81846114c46116f294896120bc565b9290506116e9565b83855252506040822060060154421038806116e2565b808452600260209080825260ff600a6040882001541661174781611ccc565b159182611779575b5050611764575b61175f90611e5f565b611690565b9061177161175f91611e5f565b919050611756565b838752525060408420600601544210388061174f565b50346101875780600319360112610187576020600754604051908152f35b50346101875780600319360112610187576020600354604051908152f35b50346101875760208060031936011261142e5760043590811515806119af575b6117f490611e84565b8183526002815260ff600a6040852001541661180f81611ccc565b611957578183526002815260066040842001544210611913576002908284525260408220600a8101805491849060088101549060055482101580611906575b61189c575b50509161058d60ff80936000805160206121078339815191529560001461188e57600182198254161781555b54166040519384931683611ef0565b60028219851617815561187f565b6064820291808304606414901517156118f25760ff9360008051602061210783398151915295936118d661058d94600c8895015490611ed0565b60065411156118ea575b9395509350611853565b5060016118e0565b634e487b7160e01b87526011600452602487fd5b50600c810154151561184e565b6064906040519062461bcd60e51b82526004820152601f60248201527f566f74696e6720706572696f6420686173206e6f7420656e64656420796574006044820152fd5b6084906040519062461bcd60e51b82526004820152602b60248201527f50726f706f73616c206e6f7420696e2061637469766520737461746520666f7260448201526a103932b9b7b63aba34b7b760a91b6064820152fd5b5060035482106117eb565b503461018757606036600319011261018757600435602435604435916119eb60018060a01b03600854163314611f13565b8015611ab35782151580611aa8575b15611a44577f2f887d9c32f7cc3cbf806949310a3afdd85b147705550dde55deb4af1ab582f99260609282600455806005558160065560405192835260208301526040820152a180f35b60405162461bcd60e51b815260206004820152603660248201527f417070726f76616c206d616a6f726974792070657263656e74616765206d7573604482015275074206265206265747765656e203120616e64203130360541b6064820152608490fd5b5060648311156119fa565b60405162461bcd60e51b815260206004820152602b60248201527f4d696e20766f74696e6720706572696f64206d7573742062652067726561746560448201526a72207468616e207a65726f60a81b6064820152608490fd5b50346101875760203660031901126101875760409060043581526002602052208054610b8e60ff60018401541692611b4660028201611c26565b60038201549091906001600160a01b0390811690611b6660048401611c26565b9060058401549060068501549060078601541691600886015493600987015495600c60ff600a8a015416980154986040519c8d9c8d611d2c565b90600182811c92168015611bd0575b6020831014611bba57565b634e487b7160e01b600052602260045260246000fd5b91607f1691611baf565b67ffffffffffffffff8111611bee57604052565b634e487b7160e01b600052604160045260246000fd5b90601f8019910116810190811067ffffffffffffffff821117611bee57604052565b9060405191826000825492611c3a84611ba0565b908184526001948581169081600014611ca95750600114611c66575b5050611c6492500383611c04565b565b9093915060005260209081600020936000915b818310611c91575050611c6493508201013880611c56565b85548884018501529485019487945091830191611c79565b915050611c6494506020925060ff191682840152151560051b8201013880611c56565b60041115611cd657565b634e487b7160e01b600052602160045260246000fd5b919082519283825260005b848110611d18575050826000602080949584010152601f8019910116010190565b602081830181015184830182015201611cf7565b98959c9b9a979394906101609a9793611d8293611d64928c52611d4e81611ccc565b60208c01526101808060408d01528b0190611cec565b6001600160a01b0395861660608b015289810360808b015290611cec565b9a60a088015260c08701521660e0850152610100840152610120830152611da881611ccc565b6101408201520152565b6020908160408183019282815285518094520193019160005b828110611dd9575050505090565b835185529381019392810192600101611dcb565b600435906001600160a01b0382168203611e0357565b600080fd5b81601f82011215611e035780359067ffffffffffffffff8211611bee5760405192611e3d601f8401601f191660200185611c04565b82845260208383010111611e0357816000926020809301838601378301015290565b6000198114611e6e5760010190565b634e487b7160e01b600052601160045260246000fd5b15611e8b57565b60405162461bcd60e51b815260206004820152601760248201527f50726f706f73616c20646f6573206e6f742065786973740000000000000000006044820152606490fd5b8115611eda570490565b634e487b7160e01b600052601260045260246000fd5b6040810193929160209190611f0481611ccc565b8152611f0f83611ccc565b0152565b15611f1a57565b60405162461bcd60e51b815260206004820152602160248201527f4f6e6c79206f776e65722063616e2063616c6c20746869732066756e6374696f6044820152603760f91b6064820152608490fd5b909291926040825260008154611f7e81611ba0565b928360408601526001918281169081600014611ff15750600114611fb1575b5050602091509360018060a01b0316910152565b90929150600052602080600020926000935b838510611fdd575050505060606020918301013880611f9d565b805486860160600152938201938101611fc3565b91505060609250602093915060ff191682850152151560051b8301013880611f9d565b60005260026020526040600020600881015460055481108015612066575b61205f57606481029080820460641490151715611e6e57600c61205792015490611ed0565b600654111590565b5050600090565b50600c82015415612032565b67ffffffffffffffff8111611bee5760051b60200190565b9061209482612072565b6120a16040519182611c04565b82815280926120b2601f1991612072565b0190602036910137565b80518210156120d05760209160051b010190565b634e487b7160e01b600052603260045260246000fdfe4ed4114a3cf8b76a0dd19021d788fdaf98f8b1552b677cba50e1171fa451c10fb66123442b5cecb65e69792eb5d9dd4e8abd4552e907d9f0f84cd98b6862fdd3a2646970667358221220e9d5759185ddaaf603a302bd574542a22a4c20260994465d41da3470a23551ad64736f6c63430008140033",
  "linkReferences": {},
  "deployedLinkReferences": {}
}